{
  "contractName": "PofToken",
  "abi": [
    {
      "inputs": [
        {
          "internalType": "uint256",
          "name": "_initialSupply",
          "type": "uint256"
        }
      ],
      "stateMutability": "nonpayable",
      "type": "constructor"
    },
    {
      "inputs": [
        {
          "internalType": "address",
          "name": "",
          "type": "address"
        }
      ],
      "name": "balanceOf",
      "outputs": [
        {
          "internalType": "uint256",
          "name": "",
          "type": "uint256"
        }
      ],
      "stateMutability": "view",
      "type": "function"
    },
    {
      "inputs": [],
      "name": "totalSupply",
      "outputs": [
        {
          "internalType": "uint256",
          "name": "",
          "type": "uint256"
        }
      ],
      "stateMutability": "view",
      "type": "function"
    }
  ],
  "bytecode": "0x608060405234801561001057600080fd5b5060405161029b38038061029b83398181016040528101906100329190610098565b80600160003373ffffffffffffffffffffffffffffffffffffffff1673ffffffffffffffffffffffffffffffffffffffff1681526020019081526020016000208190555080600081905550506100eb565b600081519050610092816100d4565b92915050565b6000602082840312156100ae576100ad6100cf565b5b60006100bc84828501610083565b91505092915050565b6000819050919050565b600080fd5b6100dd816100c5565b81146100e857600080fd5b50565b6101a1806100fa6000396000f3fe608060405234801561001057600080fd5b50600436106100365760003560e01c806318160ddd1461003b57806370a0823114610059575b600080fd5b610043610089565b60405161005091906100f8565b60405180910390f35b610073600480360381019061006e91906100bc565b61008f565b60405161008091906100f8565b60405180910390f35b60005481565b60016020528060005260406000206000915090505481565b6000813590506100b681610154565b92915050565b6000602082840312156100d2576100d161014f565b5b60006100e0848285016100a7565b91505092915050565b6100f281610145565b82525050565b600060208201905061010d60008301846100e9565b92915050565b600061011e82610125565b9050919050565b600073ffffffffffffffffffffffffffffffffffffffff82169050919050565b6000819050919050565b600080fd5b61015d81610113565b811461016857600080fd5b5056fea2646970667358221220c780aa9b86c1d6e0f0005a309ceda2875c95d6963b3285c9e5297d5e6d092c5364736f6c63430008070033",
  "immutableReferences": {},
  "source": "pragma solidity ^0.8.7;\n\ncontract PofToken {\n    // Constructor\n    // Set the total number of tokens\n    // Read the total number of tokens\n    uint256 public totalSupply;\n\n    mapping(address => uint256) public balanceOf;\n    \n    constructor (uint256 _initialSupply) {\n        balanceOf[msg.sender] = _initialSupply;\n        totalSupply = _initialSupply;\n        // allocate initial supply\n        \n    }\n}",
  "sourcePath": "/Users/minjaelee/Documents/ERC-20/code/token_sale/contracts/PofToken.sol",
  "compiler": {
    "name": "solc",
    "version": "0.8.7+commit.e28d00a7.Emscripten.clang"
  },
  "schemaVersion": "3.4.3",
  "updatedAt": "2021-10-28T01:31:24.502Z",
  "devdoc": {
    "kind": "dev",
    "methods": {},
    "version": 1
  },
  "userdoc": {
    "kind": "user",
    "methods": {},
    "version": 1
  }
}