{
  "contractName": "PofToken",
  "abi": [
    {
      "inputs": [],
      "stateMutability": "nonpayable",
      "type": "constructor"
    },
    {
      "inputs": [],
      "name": "totalSupply",
      "outputs": [
        {
          "internalType": "uint256",
          "name": "",
          "type": "uint256"
        }
      ],
      "stateMutability": "view",
      "type": "function",
      "constant": true
    }
  ],
  "bytecode": "0x608060405234801561001057600080fd5b50620f424060008190555060b3806100296000396000f3fe6080604052348015600f57600080fd5b506004361060285760003560e01c806318160ddd14602d575b600080fd5b60336047565b604051603e9190605a565b60405180910390f35b60005481565b6054816073565b82525050565b6000602082019050606d6000830184604d565b92915050565b600081905091905056fea2646970667358221220efa722772ab418a8be9b349bd33f6391482cf84cb13e076a2668fb9de67cf62864736f6c63430008070033",
  "immutableReferences": {},
  "source": "pragma solidity ^0.8.7;\n\ncontract PofToken {\n    // Constructor\n    // Set the total number of tokens\n    // Read the total number of tokens\n    uint256 public totalSupply;\n\n    constructor () {\n        totalSupply = 1000000;\n        \n    }\n}",
  "sourcePath": "/Users/minjaelee/Documents/ERC-20/code/token_sale/token_sale/contracts/PofToken.sol",
  "compiler": {
    "name": "solc",
    "version": "0.8.7+commit.e28d00a7.Emscripten.clang"
  },
  "schemaVersion": "3.4.3",
  "updatedAt": "2021-10-27T12:29:28.510Z",
  "networkType": "ethereum",
  "devdoc": {
    "kind": "dev",
    "methods": {},
    "version": 1
  },
  "userdoc": {
    "kind": "user",
    "methods": {},
    "version": 1
  }
}